:020000040800F2
:10000000500A0020C9010008632A00080F230008D5
:10001000612A0008F50300084B2D000800000000CD
:10002000000000000000000000000000672A000837
:100030006306000800000000652A0008972A0008EF
:10004000E3010008E3010008E3010008E301000800
:10005000E3010008E3010008E3010008E3010008F0
:10006000E3010008E3010008E3010008E3010008E0
:10007000E3010008E3010008E3010008E3010008D0
:10008000E3010008E3010008E3010008E3010008C0
:10009000E3010008E3010008E3010008E3010008B0
:1000A000E3010008152B0008E3010008E301000844
:1000B000E3010008E3010008E3010008E301000890
:1000C000E3010008E3010008E3010008E301000880
:1000D000E3010008E3010008E3010008E301000870
:1000E000E3010008E3010008E301000800F002F862
:1000F00000F05AF80AA090E8000C82448344AAF168
:100100000107DA4501D100F04FF8AFF2090EBAE865
:100110000F0013F0010F18BFFB1A43F0010318473B
:1001200060610000806100000A444FF0000C10F88C
:10013000013B13F0070408BF10F8014B1D1108BF65
:1001400010F8015B641E05D010F8016B641E01F805
:10015000016BF9D113F0080F1EBF10F8014BAD1C55
:100160000C1B09D16D1E58BF01F801CBFAD505E073
:1001700014F8016B01F8016B6D1EF9D59142D6D3CD
:10018000704700000023002400250026103A28BFF5
:1001900078C1FBD8520728BF30C148BF0B607047F9
:1001A0001FB51FBD10B510BD00F0AEF81146FFF72A
:1001B000F7FF05F011FA00F0CCF803B4FFF7F2FFF7
:1001C00003BC00F0D3F80000094880470948004705
:1001D000FEE7FEE7FEE7FEE7FEE7FEE7FEE7FEE7F7
:1001E000FEE7FEE704480549054A064B7047000054
:1001F000132B0008ED00000850040020500A0020D6
:10020000500600205006002040EA0103024630B5A7
:100210009B0710D14FF0013400E008C208C91D1B34
:100220009D4315EAC41FF8D013F0FF0102F8011B2B
:100230000DD01B0AF8E711F8013B002B02F8013B37
:1002400005D011F8013B002B02F8013BF3D130BD82
:1002500010B5203AC0F00B80B1E81850203AA0E861
:100260001850B1E81850A0E81850BFF4F5AF5FEA95
:10027000027C24BFB1E81850A0E8185044BF18C948
:1002800018C0BDE810405FEA827C24BF51F8043BEF
:1002900040F8043B08BF7047D20728BF31F8023B43
:1002A00048BF11F8012B28BF20F8023B48BF00F8D7
:1002B000012B70474FF0000200B513469446964656
:1002C000203922BFA0E80C50A0E80C50B1F1200169
:1002D000BFF4F7AF090728BFA0E80C5048BF0CC017
:1002E0005DF804EB890028BF40F8042B08BF704775
:1002F00048BF20F8022B11F0804F18BF00F8012BE7
:100300007047704770477047754600F02BF8AE464F
:1003100005006946534620F00700854618B020B511
:10032000FFF760FFBDE820404FF000064FF00007E8
:100330004FF000084FF0000B21F00701AC46ACE88D
:10034000C009ACE8C009ACE8C009ACE8C0098D46FA
:10035000704710B50446AFF300802046BDE810405A
:10036000FFF72BBF00487047F00300200149182019
:10037000ABBEFEE7260002007047000070B50446E1
:1003800000688168C943C90717D1816821F001015C
:10039000816000F0CBFB05460AE000BF00F0C6FB21
:1003A000401B022804D920688068C043C00706D0DB
:1003B00020688068C043C007F0D0002070BDA06AEC
:1003C00040F01000A062E06A40F00100E06201200D
:1003D00070BD000070B5064C2078002806D0A068DB
:1003E00000252946457402F0F7FE257070BD000017
:1003F00068000020FEE700F00F01000900EB80001C
:1004000001EB4000C0B270470A21B0FBF1F201FBE2
:100410001202B0FBF1F002EB0010C0B2704710B551
:10042000002000F003F8C00910BD000031B582B013
:10043000094D4FF47A740094012302AAD021286850
:1004400000F016FE0094012301AAD021286800F0D4
:10045000EDFC9DF804003EBD8000002010B508B101
:10046000802400E000240020FFF7E0FF00F07F017F
:100470002143BDE810400020AFF300801CB50223EB
:100480008DF804004FF47A70009004488DF8051040
:1004900001AAD021006800F0EBFD1CBD8000002007
:1004A00010B5024CA1600262838410BD840000205C
:1004B00070B50446818C0026006A02F0D5FA00254A
:1004C000A18C206A02F0DBFAA18C0022206A00F0E5
:1004D00028FB012002F090FFA18C206A02F0C4FAF0
:1004E000A18C206A00F010FB18B10120A840304315
:1004F000C6B2322002F080FF6D1C082DE0DB3046D2
:1005000070BD00002DE9F0410446C069264F401C33
:10051000E061A17E254E002541B100B302290CD037
:10052000B0F5487F1CD3012912D01AE0204600F014
:100530003FF8B0700220E56110E0CC21204600F0C9
:100540005BF84421204600F057F80120E56105E002
:10055000204600F02DF8B0700320E561A07602E09F
:1005600008B1032902D03846BDE8F081CC212046ED
:1005700000F042F8BE21204600F03EF82046FFF78A
:1005800097FF30702046FFF793FF7070317841EA93
:100590000020B08005F00AFD6FF0030105F018FEA1
:1005A000E561A576E0E70000000080BF8400002040
:1005B00010B50446818C006A02F061FAA18C002219
:1005C000206A00F0AEFA4FF4F07002F015FFA18C33
:1005D000206A02F049FA502002F00EFFA18C206A36
:1005E00000F092FA30B1FF244FF4C87002F004FF1B
:1005F000204610BD0124F7E72DE9F0410F460446DF
:10060000818C006A02F03BFA0025012606FA05F00B
:100610003842A18C206A11D002F031FAA18C00225C
:10062000206A00F07EFA012002F0E6FEA18C206A2A
:1006300002F01AFA322002F0DFFE0DE002F01FFA9B
:10064000A18C0022206A00F06CFA322002F0D4FE65
:10065000A18C206A02F008FA6D1C082DD6DBBDE8DB
:10066000F0817047F8B50024009490F824202546C6
:10067000012A12D0012280F824204A681F23072A69
:100680000DD20668776B521E02EB820293409F43A5
:100690000B6893401F43776319E00220F8BD06689A
:1006A0000D2A0AD2376BD21F02EB820293409F437E
:1006B0000B6893401F43376309E0F76A0D3A02EB7A
:1006C000820293409F430B6893401F43F7620A687E
:1006D000072306680A2A0AD3F7680A3A02EB42029D
:1006E00093409F438B6893401F43F76008E037694E
:1006F00002EB420293409F438B6893401F43376154
:100700000A68102A01D0112A20D1124B02689A429D
:1007100017D193681B0219D4936843F400039360C4
:100720000968102912D10C490C4A0968B1FBF2F191
:1007300001EB8101490000E0491E00910029FBD135
:1007400004E0816A41F020018162012480F8245094
:100750002046F8BD002401400C00002040420F005C
:100760002DE9F0414FF0000704003D467ED0A06A1D
:10077000002628B9E66284F82460204600F07EF85E
:100780002046FFF7FBFDA16AC90600D420B1A06A8C
:1007900040F01000A06269E0A16A21F4885141F0A4
:1007A0000201A1626268E169237B0A4347EA4301CF
:1007B0000A43A1684FF48077B94209D0012907D0D4
:1007C0005FF0000194F814C0BCF1010F02D00AE000
:1007D0003946F7E7F3B1A36A43F02003A362E36A63
:1007E00043F00103E3622368D3F804C02CF4694C9E
:1007F0004CEA010CC3F804C021688B68DFF870C0B4
:1008000003EA0C0313438B60A168B9420BD00129A2
:1008100009D00CE0DFF85CC0A3690CEB43330B4359
:1008200043F40061DFE7218A0D05A5F580152168F5
:10083000CB6A23F470032B43CB62216889680E4B8B
:100840001940914208D1E662A16A21F0020141F00B
:100850000101A162BDE8F081A06A20F0020040F031
:100860001000A062E06A40F00100E0620120F1E7C0
:10087000FDF7E1FF00E0FFFFFE0E1FFF10B586B0A1
:10088000002100910191029103911A4C03681A49C9
:1008900003221A48A34211D18B6943F400738B6180
:1008A0008B6903F4007304938B6943F004038B6139
:1008B000896901F004010491012113E0104CA34265
:1008C00015D18B6943F480638B618B6903F480637A
:1008D00004938B6943F004038B61896901F004017F
:1008E00004910221CDE90012694600F01DF806B01E
:1008F00010BD00000024014000100240000801402B
:100900000028014070B5044600F010F90546601C4F
:1009100002D004480078044400F008F9401BA042CB
:10092000FAD370BD000000202DE9F84FDFF8B89130
:10093000002409F1040A0AF1040B23460F270BF1E6
:10094000040EC9E00125A5402A40AA427DD1674E88
:10095000D1F804C0ACEB0608B44532D014DCBCF1CD
:10096000030F3AD009DCBCF1000F2AD0BCF1010F13
:100970001CD0BCF1020F31D11DE0BCF1110F17D01A
:10098000BCF1120F2AD119E0B8F5881F19D006DC86
:10099000B8F5803F15D0B8F5801F1FD111E0B8F52C
:1009A000001F0ED0B8F5041F18D10AE0CB6815E07F
:1009B000CB681B1D12E0CB6808330FE0CB680C330B
:1009C0000CE08B682BB1012B4FF0080303D045617D
:1009D00004E0042302E0056100E00023FF2A01D8BF
:1009E000064601E000F104064FEA840501D9A5F1AD
:1009F0002005D6F8008007FA05FC28EA0C0803FA5F
:100A000005F548EA0508C6F800804D68ED0062D596
:100A1000374DAE6946F00106AE61AD6924F00306BC
:100A200005F001050095334D06EB050CDCF8085088
:100A3000A607360F07FA06F825EA0805DFF8B8809A
:100A4000404503D14FF0000817E044E0DFF8AC80E8
:100A5000404502D14FF001080FE0DFF8A480404587
:100A600002D14FF0020808E0DFF89880404502D13B
:100A70004FF0030801E04FF0040808FA06F848EACE
:100A80000508CCF808804D68D9F80060ED034D46A4
:100A900001D5164300E096432E604D68DAF80060F9
:100AA000AD03554601D5164300E096432E604D68D0
:100AB000DBF80060ED025D4601D5164300E0964389
:100AC0002E604D68DEF80060AD02754601D5164314
:100AD00000E096432E60641C0D682A46E5407FF4D2
:100AE00031AFBDE8F88F0000000401400000111094
:100AF000001002400000014000080140000C0140CD
:100B000000100140001401408068084000D001201E
:100B10007047C26821EA02030A4043EA02410161C8
:100B200070470AB1016170470904FBE7014880681A
:100B3000704700000000002070B5040025D094F834
:100B40003D00002520B984F83C50204600F0E6FC2A
:100B5000242084F83D002068016821F00101016033
:100B60002068016841F4004101602068016821F4B7
:100B70000041016000F0A4FE4D4A6168914201D835
:100B80004C4900E04C49884201D2012070BD4B49DC
:100B90002368B0FBF1F15E6826F03F060E435E600D
:100BA0006368934206D94FF4967359434FF47A73AE
:100BB000B1FBF3F12368491C1E6A26F03F0631435E
:100BC00019626168914210D84900401EB0FBF1F2F1
:100BD000521CC2F30B02042A01D2042022E0B0FB13
:100BE000F1F0401CC0F30B001CE0A268F2B301EB73
:100BF000C10303EB0116431EB3FBF6F35B1C43F486
:100C000080431B0549D092B301EBC10202EB0111F5
:100C1000401EB0FBF1F0401CC0F30B0040F48040DC
:100C200040F400402168CA694CF6FF739A431043B0
:100C3000C861D4E9071001432068026822F0C002AD
:100C400011430160D4E9030101432068826848F23E
:100C5000FF339A4311438160D4E9050108432168B9
:100C6000CA6822F0FF021043C86001E00EE016E0FF
:100C70002068016841F0010101602564202084F8AA
:100C80003D00256384F83E50002070BD01EB410615
:100C9000431EB3FBF6F35B1CB3E70120C2E701EB95
:100CA0004101401EB0FBF1F0401CC0F30B00B7E760
:100CB000A086010080841E0000093D0040420F0014
:100CC0002DE9FF4F81B089460446FFF72FFF054607
:100CD00094F83D004FF0010820287DD1192301220E
:100CE00050492046009501F0E7FC002874D194F8A3
:100CF0003C00012870D0012084F83C002068016885
:100D0000C90703D1016841F0010101602068016851
:100D100021F400610160242084F83D00002626644F
:100D20004148E0624FF0011B20272068016841F430
:100D3000807101600095002259462046049B01F015
:100D4000BBFC50B120680068C00502D54FF40070AC
:100D50002064032005B0BDE8F08F216809F0FE0093
:100D60000861FFF7E3FE2168054648694969C0F359
:100D70004000C1F380214FF0A00A0FE0FFF7D6FE3C
:100D8000411B0498814200D808B984F83DA021682D
:100D900048694969C0F34000C1F3802194F83D20BF
:100DA000A02A02D008B90029E8D084F83D70206854
:100DB0004169C943890716D4016841F40071016093
:100DC000206841698069192301221649204600954F
:100DD00001F072FCB8B900E021E084F83D7084F8BD
:100DE0003C600020B6E7016841F4007101602168B1
:100DF0006FF480604861192301220A49204600955A
:100E000001F05AFC08B10120A4E7039808F1010899
:100E100080458AD384F83D7084F83C60F3E7022073
:100E200098E70000020010000000FFFF2DE9F84FD6
:100E30000025DDF82890984617468A460446009516
:100E4000FFF774FE064694F83D0020287AD1192356
:100E5000012283492046009601F02EFC0028F5D19E
:100E600094F83C0001286DD0012084F83C002068F3
:100E70000168C90703D1016841F0010101602068E0
:100E8000016821F400610160222084F83D001020F7
:100E900084F83E0025646762A4F82A80608D20856E
:100EA0007048E06233464A465146204601F048FA0F
:100EB00000287DD1208DDFF8B081202768B101287E
:100EC00014D00228206801681ED041F480610160BE
:100ED0002068416980690090B5E0206841698169B6
:100EE0000091016841F400710160ACE02068016884
:100EF00021F48061016072B62068416981690091C6
:100F0000016841F400710AE041F40061016072B6C9
:100F10002068416981690091016821F48061016064
:100F200062B690E0032868D801280CD002284B460E
:100F30004FF000024146204600960FD001F0BCFB66
:100F4000B0BB10E08AE032464946204601F033FC4F
:100F500070BB20680069616A08706BE001F0ACFB4F
:100F600030BB72B634E02068016821F48061016012
:100F700072B620680069616A0870606A401C60622D
:100F8000208D401E2085608D401E6085374846F2CA
:100F9000A8110068B0FBF1F0C0EBC00000EB8000CE
:100FA0000090401E009008D020684069C04300E0D7
:100FB00029E040070CD50098F3E744F8305F6773E9
:100FC000A573206940F02000206162B625731AE005
:100FD0002068016841F40071016020680069616A5D
:100FE0000870606A401C6062218D491E2185618DF8
:100FF000491E618562B621681AE03246494620469C
:1010000001F0D9FB10B10120BDE8F88F206800691C
:10101000616A0870606A401C6062218D491E2185EA
:10102000618D491E618521684A69D24352070AD4FD
:1010300009690170606A401C6062208D401E208535
:10104000608D401E6085208D00287FF46BAF84F892
:101050003D7084F83E5084F83C50D5E70220D3E739
:10106000020010000000FFFF040001000C0000203F
:101070002DE9F84F1F4690468A460446DDF8289031
:10108000FFF754FD054694F83D0020287FD1192331
:10109000012240492046009501F00EFB002876D140
:1010A00094F83C00012872D0012084F83C002068AC
:1010B0000168C90703D1016841F00101016020689E
:1010C000016821F400610160212084F83D001020B6
:1010D00084F83E0000262664C4F824806785608D6D
:1010E00020852D48E0622B464A465146204601F0B5
:1010F0009DF990B9206841698069009036E02A46E0
:101100004946204601F08AFB50B1206C042804D1E6
:101110002068016841F4007101600120BDE8F88F8A
:10112000606A216800780861606A401C6062618DB5
:10113000491E6185218D491E89B221852268536926
:10114000DB435B070BD451B100781061606A401C2F
:101150006062608D401E6085208D401E20852A467D
:101160004946204601F082FA0028CED1208D002881
:10117000C5D154F83D0B016841F400710160202095
:1011800004F81E09E67766770020C7E7FFE702202C
:10119000C4E70000020010000000FFFF2DE9FF4F30
:1011A00083B00025DDE910799A4693460446DDF8C0
:1011B00048800095FFF7BAFC064694F83D002028C9
:1011C0007CD11923012285492046009601F074FA4A
:1011D0000028F5D194F83C0001286FD0012084F854
:1011E0003C0020680168C90703D1016841F0010192
:1011F00001602068016821F400610160222084F808
:101200003D00402084F83E0025646762A4F82A90DF
:10121000608D20857248E062CDE9008653465A46CB
:101220002046049901F050F900287DD1208DDFF887
:10123000B491202768B1012814D0022820680168E1
:101240001ED041F48061016020684169806900908E
:10125000B6E02068416981690091016841F400713C
:101260000160ADE02068016821F48061016072B620
:101270002068416981690091016841F400710AE0C8
:1012800041F40061016072B6206841698169009192
:10129000016821F48061016062B691E0032868D89A
:1012A00001280CD0022843464FF000024946204650
:1012B00000960FD001F000FAB0BB10E08BE0324690
:1012C0004146204601F077FA70BB20680069616AE8
:1012D00008706CE001F0F0F930BB72B634E02068C1
:1012E000016821F48061016072B620680069616A5A
:1012F0000870606A401C6062208D401E2085608DF1
:10130000401E6085384846F2A8110068B0FBF1F035
:10131000C0EBC00000EB80000090401E009008D0A1
:1013200020684069C04300E029E040070CD50098E0
:10133000F3E744F8305F6773A573206940F020003D
:10134000206162B625731AE02068016841F40071DB
:10135000016020680069616A0870606A401C606210
:10136000218D491E2185618D491E618562B62168E6
:101370001BE032464146204601F01DFA18B101201B
:1013800007B0BDE8F08F20680069616A0870606A84
:10139000401C6062218D491E2185618D491E618539
:1013A00021684A69D24352070AD409690170606A08
:1013B000401C6062208D401E2085608D401E60852F
:1013C000208D00287FF46AAF84F83D7084F83E5089
:1013D00084F83C50D4E70220D2E70000020010005D
:1013E0000000FFFF040001000C0000202DE9FF4F6A
:1013F00083B09A46DDE9119793460446DDF84080B4
:10140000FFF794FB054694F83D0020287FD119236F
:10141000012240492046009501F04EF9002876D17E
:1014200094F83C00012872D0012084F83C00206828
:101430000168C90703D1016841F00101016020681A
:10144000016821F400610160212084F83D00402002
:1014500084F83E0000262664C4F82480A4F82A906C
:10146000608D20852C48E062CDE9007553465A46D0
:101470002046049901F0A6F870B930E02A463946B2
:10148000204601F0CBF958B1206C042804D1206823
:10149000016841F400710160012007B0BDE8F08FE0
:1014A000606A216800780861606A401C6062218D72
:1014B000491E89B22185628D521E62852268536958
:1014C000DB435B070BD469B100781061606A401C94
:1014D0006062208D401E2085608D401E6085208DBD
:1014E0000028CBD12A463946204601F0BFF8002813
:1014F000CAD154F83D0B016841F40071016020200D
:1015000004F81E09E67766770020C6E7FFE70220A9
:10151000C3E70000020010000000FFFF10B586B016
:101520000021009101910291039100680F498842C6
:101530001AD10F4CA06940F00800A061A06969466B
:1015400000F008000490C0200090122001900320B9
:1015500003900848FFF7E8F9E06940F40010E06103
:10156000E06900F40010049006B010BD0054004083
:1015700000100240000C01400248816802781144CA
:101580008160704700000020074810B5016841F0F5
:1015900010010160032000F075F80F2000F006F83C
:1015A00000F024F8002010BD0020024070B50D4D61
:1015B00004464FF47A712878B1FBF0F00A490968C3
:1015C000B1FBF0F000F062FB48B9102C07D200220A
:1015D0002146501E00F036F800206C6070BD0120DE
:1015E00070BD0000000000200C0000200C4808B571
:1015F000816941F001018161816901F0010100917E
:10160000C16941F08051C161C06900F08050009013
:101610000448416821F0E06141F00071416008BD7B
:101620000010024000000140002809DB00F01F020A
:10163000012191404009800000F1E020C0F8001134
:1016400070470000F0B40E4B1B680C46C3F3022336
:10165000C3F10705042D00D90425191D072901D25E
:10166000002300E0DB1E012606FA05F1491E214099
:1016700099409E40761E16403143F0BC01F066BB97
:101680000CED00E0064900F0070208684FF6FF0382
:10169000184040EA0220034A1043086070470000E7
:1016A0000CED00E00000FA052DE9F843054600784E
:1016B000354CC00754D0E0690026C00008D4E0696A
:1016C00040F08050E061E069012600F08050009019
:1016D0002E480168C90512D40168804641F4807122
:1016E0000160FFF723FA074605E000BFFFF71EFA87
:1016F000C01B642823D8D8F80000C005F6D5206A9E
:1017000010F4407021D0A98801F4407181421CD0AE
:10171000206A1F49012220F440700A6000220A60FA
:101720002062C00711D0FFF701FA074641F288385E
:1017300008E000BFFFF7FAF9C11B414502D90320B9
:10174000BDE8F883206A8007F4D5206A696820F430
:101750004070084320621EB1E06920F08050E061D3
:101760002878800705D56068A96820F440400843C0
:1017700060602878C00605D56068E96820F48000BC
:10178000084360600020DBE700100240007000406A
:10179000400442422DE9F0470F46050061D0434E18
:1017A000306800F00700B84209D2306820F0070026
:1017B00038433060306800F00700B84251D12868E3
:1017C0003B4C810712D5400703D5606840F4E060C8
:1017D00060602878000703D5606840F4605060605E
:1017E0006068A96820F0F000084360602878C007AE
:1017F00028D06868012810D02168022810D08907F5
:1018000000292EDA616821F0030101436160FFF7CE
:101810008DF9804641F288390DE021688903EFE7B0
:101820008901EDE7FFF782F9A0EB0801494502D9EC
:101830000320BDE8F0876068696800F00C00B0EB39
:10184000810FEFD1306800F00700B8420BD9306843
:1018500020F0070038433060306800F00700B842DD
:1018600001D00120E5E72878400705D56068E968E0
:1018700020F4E060084360602878000706D56068BF
:10188000296920F4605040EAC100606000F038F837
:101890006168084AC1F30311515CC84006490860F9
:1018A00006480068FFF782FE0020C2E700200240E1
:1018B000001002404C6200080C00002004000020D0
:1018C0000448054900684968044AC1F30221515C93
:1018D000C84070470C000020001002405C62000805
:1018E0000448054900684968044AC1F3C221515CB3
:1018F000C84070470C000020001002405C620008E5
:1019000012A185B00FC98DE80F0014A0144A006819
:1019100004905168134801F00C03042B10D0082BDD
:101920000ED1C1F38343C9031DF803000AD55168E2
:1019300004AAC1F34041515C0A4A5043B0FBF1F0A4
:1019400005B0704708494843FAE700000203040560
:10195000060708090A0B0C0D0E0F101001020000FB
:101960000010024000127A0000093D002DE9F84FF6
:10197000040070D02078C04DC00749D06868C0F31B
:101980008100012807D06868C0F38100022809D1CE
:101990006868C00306D52868800339D560680028C8
:1019A000E7D035E06068B0F5803F0BD010B1B0F5FE
:1019B000A02F11D0286820F480302860286820F4F7
:1019C000802002E0286840F480302860606890B190
:1019D000FFF7ACF806460AE0286840F4802028604B
:1019E000F0E700BFFFF7A2F8801B642873D82868CF
:1019F0008003F7D50CE0FFF799F8064605E000BF35
:101A0000FFF794F8801B6428F0D828688003F7D487
:101A100020789A4E80074FF001094FF0000839D521
:101A2000686810F00C0F07D06868C0F381000228C6
:101A300009D16868C00306D42868800714D52069D6
:101A4000012808D110E02069B0B1C6F80090FFF776
:101A50006DF8074605E00AE1FFF768F8C01B0228A9
:101A6000C4D828688007F7D52868616920F0F80095
:101A700040EAC10028600DE0C6F80080FFF756F884
:101A8000074604E0FFF752F8C01B022823D8286855
:101A90008007F7D4207800072CD57948A169D9B1FF
:101AA000C0F80090FFF742F8074604E0FFF73EF861
:101AB000C01B02280FD8686A8007F7D571484FF419
:101AC000FA510068B0FBF1F0009000BF0098411E91
:101AD0000091FAD20EE080E0C0F80080FFF726F80F
:101AE000074604E0FFF722F8C01B022875D8686A91
:101AF0008007F7D42078400760D5E8690027C00048
:101B000008D4E86940F08050E861E869012700F0F6
:101B1000805000905C480168C90513D40168834671
:101B200041F480710160FFF701F8824606E000BFD2
:101B3000FEF7FCFFA0EB0A0064284ED8DBF800009B
:101B4000C005F5D5E06801280AD008B1052813D0F2
:101B5000286A20F001002862286A20F0040002E0D0
:101B6000286A40F001002862E06841F2883B98B1A1
:101B7000FEF7DCFF82460BE0286A40F00400286292
:101B8000EEE700BFFEF7D2FFA0EB0A0159455AD895
:101B9000286A8007F6D50CE0FEF7C8FF824605E00C
:101BA000FEF7C4FFA0EB0A0159454CD8286A80070C
:101BB000F6D41FB1E86920F08050E861E06988B38D
:101BC0006968C1F38101022944D00228C6F8608007
:101BD00004D0FEF7ABFF044638E034E0FEF7A6FF82
:101BE000074604E0FEF7A2FFC01B02282BD8286896
:101BF0008001F7D4206AB0F5803F05D16868A168FC
:101C000020F4003008436860D4E90801084369689B
:101C100021F4741108436860C6F86090FEF786FFEF
:101C2000044606E025E000BFFEF780FF001B022807
:101C300009D828688001F7D51BE000BFFEF776FFC2
:101C4000001B022802D90320BDE8F88F2868800114
:101C5000F4D40EE00128F7D06868226A00F48031DD
:101C6000914204D1616A00F47010884201D00120D1
:101C7000EAE70020E8E700000010024000004242CE
:101C8000800442420C0000200070004010B5401E4D
:101C9000B0F1807F01D3012010BD4FF0E0246061DE
:101CA0000F21601701F052F80020A0610720206189
:101CB000002010BD7047704770B590F83C20012A95
:101CC00026D0012480F83C40022280F83D200368A1
:101CD0005A689D6822F070060A6832435A600D4BBC
:101CE00002689A4208D0B2F1804F05D00A4B9A425E
:101CF00002D00A4B9A4204D1496825F08003194367
:101D0000916080F83D40002180F83C10084670BD8D
:101D1000022070BD002C014000040040000800407B
:101D200010B5040003D094F83D0010B107E0012085
:101D300010BD002084F83C00204600F01FF802206F
:101D400084F83D00211D206800F0EAFE012084F89F
:101D5000460084F83E0084F83F0084F8400084F890
:101D6000410084F8420084F8430084F8440084F879
:101D7000450084F83D00002010BD000008B5114A60
:101D800001681148914211D1816941F4006181617A
:101D90008069002200F40060009011461920FFF7CE
:101DA00051FCBDE808401920FFF73EBCB1F1804F5F
:101DB00007D1C16941F00101C161C06900F00100B2
:101DC000009008BD002C01400010024090F83D102A
:101DD000012901D001207047022180F83D100068E0
:101DE0000B49884208D0B0F1804F05D0094988429C
:101DF00002D00949884204D1816801F0070106290F
:101E000003D0016841F0010101600020704700002B
:101E1000002C0140000400400008004090F83D10F4
:101E2000012901D001207047022180F83D1001688E
:101E3000CA6842F00102CA6000680B49884208D0B3
:101E4000B0F1804F05D00949884202D00849884244
:101E500004D1816801F00701062903D0016841F02F
:101E60000101016000207047002C01400004004087
:101E70000008004070B5044690F83C00012817D0D7
:101E8000012584F83C50022084F83D0020688268D7
:101E900022F0770222F47F4282600868502830D016
:101EA0000DDC20284DD005DC98B310283BD148E04C
:101EB000022070BD302844D0402834D139E0602859
:101EC00028D0702806D0B0F5805F2CD0B0F5005F28
:101ED00029D10AE0CB68D1E90121206800F056FE43
:101EE0002068816841F0770109E0CB68D1E90121E0
:101EF000206800F04BFE2068816841F480418160D9
:101F000011E0CA684968206800F052FE502120683C
:101F100007E016E0CA684968206800F05AFE6021B0
:101F2000206800F03DFE84F83D50002084F83C001D
:101F300070BDCA684968206800F03AFE40212068F8
:101F4000EFE7226801461046EBE7704770B504469C
:101F5000006801694FF00005C943890715D4C168BD
:101F6000C943890711D4E91E016101202077206847
:101F700080698007204602D0FFF7E7FF04E000F009
:101F800098F8204600F096F8257720680169C94343
:101F9000490717D4C168C943490713D46FF0040136
:101FA0000161022020772068806910F4407F20467C
:101FB00002D0FFF7CAFF04E000F07BF8204600F0F3
:101FC00079F8257720680169C943090716D4C168E3
:101FD000C943090712D46FF008010161042020777A
:101FE0002068C0698007204602D0FFF7AEFF04E0FA
:101FF00000F05FF8204600F05DF825772068016961
:10200000C943C90617D4C168C943C90613D46FF0C0
:1020100010010161082020772068C06910F4407F1A
:10202000204602D0FFF791FF04E000F042F820467E
:1020300000F040F8257720680169C943C90708D135
:10204000C168C943C90704D1891E0161204600F057
:1020500033F820680169C943090609D4C168C94336
:10206000090605D46FF0800101612046FFF722FECA
:1020700020680169C943490609D4C168C9434906B2
:1020800005D46FF040010161204600F067F8206838
:102090000169C94389060BD4C168C943890607D4BD
:1020A0006FF0200101612046BDE87040FFF703BEDC
:1020B00070BD70477047000070B5264C0025206841
:1020C000401C2060642804D304F12000256003F044
:1020D0007EFA61694FF4FA73491C01221E4861615E
:1020E000994201D9656142716168491C6160B1F52D
:1020F000617F01D342706560E169491CE161B1F51E
:10210000FA6F01D1E561C2712169491C21619942CF
:1021100001D3256102710F48483000F093FF0D484C
:10212000583000F08FFF0B4A343202F13401A1F134
:10213000200001F015F8074A343202F13401A1F110
:10214000100001F00DF8BDE870400248683001F061
:102150001CB800001803002028000020704770B54C
:10216000040004D094F83D00002510B106E00120E1
:1021700070BD84F83C50204600F022F8242084F8FA
:102180003D002068C16821F40051C160204600F084
:1021900033FD2068016921F49041016120684169A3
:1021A00021F02A0141612068C16841F40051C160F9
:1021B0002564202084F83D0084F83E00002070BD96
:1021C00030B585B000240094019402940394006813
:1021D0001449884223D11448C16941F40031C161D6
:1021E000C16901F400310491816941F00401816108
:1021F00080690E4D00F0040004900420009002203D
:1022000001900320039069462846FEF78DFB0820C5
:10221000CDE90004694628460294FEF785FB05B027
:1022200030BD0000004400400010024000080140A2
:1022300090F83E30202B0ED159B152B190F83C307D
:10224000012B08D0012380F83C300023036300F009
:102250002FBD012070470220704700002DE9F84390
:10226000044690F83D001F4616460D4620284CD1E6
:10227000C5B1BEB194F83C00012846D0012084F8D5
:102280003C004FF00008C4F84080212084F83D0055
:10229000FEF74CFCA6848146E684A068B0F5805F1A
:1022A00003D004E00120BDE8F883206928B12E4660
:1022B0005FF0000584F83C800EE00026FAE78021FC
:1022C000204600F010FDA0B9AEB116F8010B216850
:1022D0004860E08C401EE084E08C4B464FF00002EA
:1022E00000970028EBD14FF04001204600F0FBFCA6
:1022F00030B10320D7E735F8020BC0F30800E6E75A
:10230000202084F83D000020CDE70220CBE7FEE747
:1023100001684A69D24352050FD46FF480624A6162
:10232000002140F8301F202242738173026942F07D
:102330000402026101730120704700207047000011
:102340002DE9F84F0446C06A1E4693460D462168A3
:102350000A6842F480620A60082807D0012805D084
:1023600010F5803F02D0206B112804D1206801684D
:1023700041F4807101604FF001195B46002249462B
:102380002046009600F098F94FF4007840B120689C
:102390000068C00501D5C4F840800320BDE8F88F6F
:1023A0002069DFF884A0B0F5804F0FD006202168A7
:1023B00000EAD51747F0F000086133465A460AF1A3
:1023C0000601204600F0ACF958BB03E0E8B240F04B
:1023D00001001CE02168E8B2086133465A465146C4
:1023E000204600F09DF9E0B92068416981690091BB
:1023F000016841F4807101605B4600224946204635
:10240000009600F059F90028C1D147F0F100216889
:10241000086133465A465146204600F081F90028AB
:10242000BCD00120BAE7000002000100F8B5044664
:10243000C06A1E460D461746082807D0012805D059
:1024400010F5803F02D0206B122804D1206801686B
:1024500041F480710160134600224FF001112046C3
:10246000009600F029F940B120680068C00502D547
:102470004FF4007020640320F8BD2069B0F5804F50
:102480000ED00620216800EAD51040F0F000086167
:1024900033463A460B49204600F042F978B902E04B
:1024A00005F0FE0000E0E8B2216808610549334606
:1024B0003A46891F204600F033F90028DCD001207D
:1024C000F8BD0000080001002DE9F84F044600683F
:1024D00089460B9D01689846174641F4806101606A
:1024E0002068016841F48071016000954FF0011B84
:1024F0000022594620460A9B00F0DEF84FF4007A8D
:1025000040B120680068C00501D5C4F840A0032090
:10251000BDE8F88F216809F0FE0008612B462849C4
:1025200020460A9A00F0FCF8F0BB206841698069F7
:1025300000902A4620460A9900F070F940B1206CBC
:1025400004283AD12068016841F40071016034E048
:10255000FEB2B8F1010F09D02168380A08612A4695
:1025600020460A9900F05AF90028E8D1206806614F
:102570002A4620460A9900F051F90028DFD1206848
:10258000016841F48071016000950022594620469F
:102590000A9B00F091F80028B3D1216809F0FF00F0
:1025A00040F00100086100E007E02B4604492046A6
:1025B0000A9A00F0B5F80028AAD00120A8E7000088
:1025C000020001002DE9F843044600680D46DDE9EC
:1025D000089701689846164641F4807101604B46A1
:1025E00000224FF001112046009700F065F848B135
:1025F00020680068C00502D54FF4007020640320F5
:10260000BDE8F883216805F0FE0008613B464A46B4
:102610001549204600F084F888B92068416980692E
:1026200000903A464946204600F0F8F848B1206C40
:10263000042804D12068016841F400710160012080
:10264000DEE7F5B2B8F1010F09D02168300A086160
:102650003A464946204600F0E1F80028E7D12068D4
:1026600005610020CCE700000200010070B51646AD
:102670000D4604460DE02046FFF74AFE08B1012052
:1026800070BD681C05D0FEF751FA801BA84207D820
:1026900035B120684069C0434007ECD4002070BDCC
:1026A000002044F8300F20216173A073216941F0AC
:1026B000200121612073E2E72DE9F0471E46904694
:1026C0000D460446C1F30747DDF8209008E0701C72
:1026D00006D0FEF72BFAA0EB0900B0420FD876B176
:1026E0002068012F18D0806925EA00000004000C42
:1026F00014D000214145EAD00020BDE8F087002039
:1027000044F8300F20216173A073216941F020014A
:10271000216120730120F0E74069E5E70121E9E745
:102720002DE9F0479A4691460E46044600254FF0A3
:102730002008C1F3074725E020684069C0434005F1
:1027400014D42068016841F40071016021686FF4BD
:1027500080604861256384F83D8084F83E50206C99
:1027600040F00400206484F83C501FE0B9F1FF3FC2
:1027700008D0FEF7DBF9A0EB0A0149450CD8B9F106
:10278000000F09D02068012F13D0806926EA0000CD
:102790000004000C0BD0CFE744F8305F84F80D80C4
:1027A000A573206940F02000206125730120BDE859
:1027B000F0874069EAE72DE9F041002590460E4692
:1027C0000446202717E04069C043C0060CD454F8E3
:1027D000301B6FF01000486144F810596777A577F7
:1027E000206A2062257717E0FEF7A0F9A0EB080029
:1027F000B04208D83EB120684169C9434906E2D4D5
:102800000020BDE8F08144F8305F6773A57320694C
:1028100040F02000206125730120F2E770B51646D4
:102820000D4604460DE02046FFF772FD08B1012079
:1028300070BD681C05D0FEF779F9801BA84207D847
:1028400035B120684069C0430006ECD4002070BD5B
:10285000002044F8300F20216173A073216941F0FA
:10286000200121612073E2E73EB500241048009466
:10287000019402940D49846001600473047501257C
:1028800005614FF460214460C161FDF769FF08B143
:1028900072B6FEE7CDE90045694605480294FDF7AA
:1028A000E1FE002801D072B6FEE73EBD00240140E3
:1028B000900100203EB50024104800940194029439
:1028C0000D498460016004730475012505614FF4AE
:1028D00060214460C161FDF743FF08B172B6FEE7B5
:1028E0000095CDE9015469460448FDF7BBFE002878
:1028F00001D072B6FEE73EBD00280140C0010020B5
:1029000070B586B000241F4800940194029403948B
:10291000816941F020018161816901F02001049108
:10292000816941F004018161816901F00401049130
:10293000816941F0080181618069134E00F008004F
:102940000490012203213046FEF7EBF800224FF4F9
:1029500040713046FEF7E5F840F203300125CDE93D
:1029600000050220CDE9024069463046FDF7DCFF54
:102970004FF410408DE8310069460448FDF7D4FF5C
:1029800006B070BD00100240000C0140000801407C
:1029900010B586B000241748009401940294039463
:1029A00004941349059401604721C0E9011440F2E1
:1029B000E731C0E9031444618461FFF7B1F908B15C
:1029C00072B6FEE74FF48050009069460948FFF761
:1029D00051FA08B172B6FEE7049404A905480594BB
:1029E000FFF76AF9002801D072B6FEE706B010BD05
:1029F000002C01404402002010B586B00024174886
:102A0000009401940294039404944FF0804105943F
:102A100001604721C0E901144FF6FF71C0E90314BA
:102A200080218161FFF77CF908B172B6FEE74FF4AF
:102A30008050009069460948FFF71CFA08B172B649
:102A4000FEE7049404A905480594FFF735F900282A
:102A500001D072B6FEE706B010BD00008C02002067
:102A6000FEE7FEE7704770471FB50022CDE9001270
:102A70000121CDE902126946FDF756FF1FBD1FB5C2
:102A8000002200910121CDE9011202210391694642
:102A9000FDF74AFF1FBDFEF76FBD30B593B028218B
:102AA0006846FDF707FC14210AA8FDF703FC002582
:102AB00001200F9510951195010412958DE82300C2
:102AC00004904FF4E010CDE9081002240794684602
:102AD000FEF74CFF08B172B6FEE70AA90F2081E8A5
:102AE00031004FF48060CDE90D0502210AA8FEF700
:102AF00051FE08B172B6FEE74FF4004011900F94FA
:102B00000FA8FEF7D1FD002801D072B6FEE713B082
:102B100030BD70470148FFF719BA00004402002099
:102B2000F0B50268164B174C174D4FF0804798428E
:102B300005D0B84203D0A04201D0A84203D122F070
:102B400070064A683243984205D0B84203D0A0428A
:102B500001D0A84203D122F44074CA6822434C69D0
:102B600022F08002224302608A68C2620A6882629E
:102B7000984201D10969016301214161F0BD000062
:102B8000002C0140000400400008004010B584689B
:102B900042EA032224F47F440A432243826010BDA8
:102BA000826822F070020A4342F007018160704798
:102BB00010B5036A046A24F001040462846924F0F5
:102BC000F00444EA021423F00A020A438461026218
:102BD00010BD10B5036A23F0100303628369046A11
:102BE00023F4704343EA023224F0A00343EA0111C4
:102BF0008261016210BD000070B504460068016981
:102C0000E26821F44051114301612169A068084341
:102C1000616908432168CA6841F20C639A43024320
:102C2000CA6020684169A26921F440711143416181
:102C30001E492068884202D1FEF752FE01E0FEF7ED
:102C40003FFE00EBC00101EB0012606864218000D0
:102C5000B2FBF0F3B3FBF1F36FF018067343B2FB72
:102C6000F0F5B2FBF0F605EB8305322303EB051517
:102C7000B5FBF1F5B6FBF1F605F0F00505EB061531
:102C8000B2FBF0F6B2FBF0F0B0FBF1F06FF018021F
:102C9000504306EB800003EB0010B0FBF1F021681D
:102CA00000F00F002844886070BD0000003801402B
:102CB00081628285C28500210164222280F83E2043
:102CC00080F83C100168CA6842F48072CA600168EA
:102CD0004A6942F001024A610068C16841F020017E
:102CE000C160002070472DE9F041984617460E4616
:102CF0000446069D1DE0681C1BD02DB1FDF716FF94
:102D0000A0EB0800A84214D92068C16821F4D07152
:102D1000C1602068416921F001014161202084F8EF
:102D20003D0084F83E00002084F83C000320BDE80C
:102D3000F0812068006836EA000004D00020B84224
:102D4000D9D00020F3E70120F9E7FEE70907090ED3
:102D5000002804DB00F1E02080F80014704700F048
:102D60000F0000F1E02080F8141D704730B4817826
:102D7000002922D0C17800291FD1114B027859684F
:102D8000CC78A24219D189784078814212D3081AAE
:102D900002280FDC59781878014307D001280CD19C
:102DA00098680A2230BC052100F012BA0120587040
:102DB0001870F5E700201870587030BC704700009C
:102DC0006800002010B5094C60681330FFF7CEFF93
:102DD00060681830FFF7CAFF60681D30FFF7C6FF54
:102DE0006068BDE810402230FFF7C0BF68000020D7
:102DF000014AC2E901017047680000200279032AF4
:102E000027D14279022A24D190F9060001280DD059
:102E1000022811D0032815D004281AD101F1240367
:102E200091F825005A1E223100F0C2B801F11503B5
:102E3000887D5A1E1331F7E701F11A03C87E5A1E26
:102E40001831F1E701F11F0391F820005A1E1D31DE
:102E5000EAE770470279032A27D14279022A24D16E
:102E600090F9060001280DD0022811D0032815D0B2
:102E700004281AD101F1240391F825005A1E2231A9
:102E800000F0A3B801F11503887D5A1E1331F7E74E
:102E900001F11A03C87E5A1E1831F1E701F11F0330
:102EA00091F820005A1E1D31EAE770470279032A83
:102EB0001BD14279022A18D190F906300022012054
:102EC000012B13D0022B1BD0032B23D0042B0CD1AE
:102ED00091F825305B1CDBB281F82530032B04D937
:102EE00081F82600087081F8252070478B7D5B1CD7
:102EF000DBB28B75032BF8D9C87508708A757047DB
:102F0000CB7E5B1CDBB2CB76032BF8D9087708703D
:102F1000CA76704791F820305B1CDBB281F8203014
:102F2000032BF6D981F82100087081F82020704722
:102F300001280CD002280AD0032807D10878401CA9
:102F4000C0B20870012801D90020087070470878C5
:102F50000028FBD0401EF8E70A780023521CD2B2AA
:102F60000A70012806D0022808D0032801D1012ABE
:102F700002D87047172AFCD90B7070473B2AFBD840
:102F80007047F8B51C4615460E464FF47A73032277
:102F9000694600F061FEC820FDF7B4FC9DF8000012
:102FA00030709DF8010028709DF802002070F8BD77
:102FB000012804D0022804D0032805D11946FFF7C0
:102FC000B7BF11460220FAE77047012804D0022853
:102FD00004D0032805D11946FFF7BEBF11460220D1
:102FE000FAE7704710B50E4C84E80F000D4802F068
:102FF000A3FF0D4802F0B2FF0C4802F0A9FF0C48F5
:1030000002F0A0FF0B4800F041FA0B4800F050FA24
:103010000A4800F047FABDE81040094800F03CBA01
:1030200030000020915E0008C95E0008C75E0008FD
:10303000C55E000811340008473400084534000814
:103040004134000810B50446007978B12079012890
:1030500011D02079062808D1A189A06801F0C8F80C
:10306000012802D100202060207110BD2046BDE85B
:10307000104000F03FB82068401C2060A189A06883
:1030800001F0B6F8012808D1204600F046F82046A5
:1030900000F05AF8204600F04AF8204600F00CF8FC
:1030A0002046BDE8104000F00FB800230360037114
:1030B0004371816082817047016841F28832914298
:1030C00001D30521017170470168642910D001689E
:1030D000B1F57A7F0CD00168A1F53062B83A07D01B
:1030E0000168A1F59852883A01D1022141717047D7
:1030F0000121FBE710B504468189806801F078F86A
:10310000002809D12068401C20602068322803D1A3
:10311000002020600120207110BD0168B1F57A7F88
:1031200004D20168002901D00221017170470168B1
:1031300040F6B832914206D3016841F2883291429A
:1031400001D20421017170470168B1F57A7F06D37D
:10315000016840F6B832914201D2032101717047F3
:103160000B46417900290FD041790022012907D06F
:103170004179022908D142710A22184600F028B884
:1031800042710A220121F8E7704730B4417C0029DE
:1031900010D08268521C8260C368448AD31AA3424A
:1031A00008D9491EC2604174C90700D0012130BC52
:1031B00000F012B830BC70470160828000210174B9
:1031C0004FF4FA7242828160C160417400F004B829
:1031D000490041744282704701740A468188006840
:1031E00001F00AB80C4840694179012913D190F9DE
:1031F000061009488038012907D0022907D0032981
:1032000007D0042907D1006A00474069FCE78069BC
:10321000FAE7C069F8E77047340100200C484069BC
:103220004179012913D190F9061009488038012904
:1032300007D0022907D0032907D0042907D1006E3F
:103240000047406DFCE7806DFAE7C06DF8E7704716
:10325000340100200C4840694179022913D190F9CA
:10326000061009488038012907D0022907D0032910
:1032700007D0042907D1006B0047406AFCE7806A49
:10328000FAE7C06AF8E77047340100200C4840694B
:103290004179022913D190F9061009488038012993
:1032A00007D0022907D0032907D0042907D1006FCE
:1032B0000047406EFCE7806EFAE7C06EF8E77047A3
:1032C000340100200C4840694179032913D190F959
:1032D000061009488038012907D0022907D00329A0
:1032E00007D0042907D1006C0047406BFCE7806BD6
:1032F000FAE7C06BF8E77047340100200C494869D1
:103300004279032A13D190F90620A1F18000012A05
:1033100007D0022A07D0032A07D0042A07D1086859
:103320000047406FFCE7806FFAE7C06FF8E770472F
:10333000340100200C4840694179042913D190F9E7
:10334000061009488038012907D0022907D003292F
:1033500007D0042907D1006D0047406CFCE7806C62
:10336000FAE7C06CF8E77047340100200B48416968
:103370004A79042A11D191F90610012907D00229AE
:1033800007D0032907D0042907D100690047406806
:10339000FCE78068FAE7C068F8E77047340100206E
:1033A0000246481E012A06D0022A04D0032A02D06F
:1033B000042A05D102E0012901D801E001B1C1B21E
:1033C000084670470246491CC8B2012A09D0022AA1
:1033D0000BD0032A0CD0042A02D1632800D9002084
:1033E00070470728FCD9012070471F28FBD8704779
:1033F0000C28F8D8704700000449002289680B683F
:103400005A6209684A6A8242FCD3704784000020ED
:1034100010B501F03DFF094CD4E9000102F035F987
:10342000D4E90001FFF7EAFCA168206802F026FB5E
:10343000E1682068BDE8104002F0CEBC30000020FA
:1034400001F0B4BD704701F0F5BE000070B5044650
:103450000079002814D021790B48062502290AD0CA
:103460002179032909D0217904290AD02179052954
:1034700006D1C06902E0006900E04069804725711B
:1034800070BD8069FAE700009400002001490861DE
:1034900070470000940000200149C8617047000097
:1034A00094000020014988617047000094000020CA
:1034B000014948617047000094000020014988607C
:1034C0007047000040000020064A9178C1F10101D8
:1034D000C9B29170012903D020218171C17101729B
:1034E00070470000400000200D4B1A79C2F1010224
:1034F000D2B21A71012A0CD000290AD02022431C12
:10350000012907D0022908D0032902D1027342738E
:103510008273704742708270704702711A717047EF
:10352000400000200F490A78C2F10102D2B20A70AD
:10353000012A0CD089688A7A2021012A08D0022A1F
:103540000AD0032A0BD0042A01D14173817370473A
:1035500001704170817070474171817170470172D3
:1035600041727047400000200D49CA78C2F1010243
:10357000D2B2CA70012A09D089688A7B2021012A27
:1035800005D0022A02D101734173817370478170A3
:10359000C170017141718171C17101727047000088
:1035A000400000200A494A78C2F10102D2B24A70B2
:1035B000012A09D08968021D0B792021012B04D032
:1035C000022B01D1C17111717047017141717047B6
:1035D0004000002010B586B0044614220EA16846B3
:1035E000FCF736FE11484F218068007C8DF80610EC
:1035F00001280AD046218DF807108DF80810694679
:103600002046FCF701FE06B010BD4E208DF80700E5
:1036100020208DF80800F2E72020202020204F4EA7
:10362000202020202020202000000000400000203A
:10363000F0B585B014460D4607461E4614221BA160
:103640006846FCF705FE0A20B5FBF0F130318DF835
:103650000110B5FBF0F100FB115130318DF8021073
:10366000B4FBF0F130318DF80410B4FBF0F100FB45
:10367000114030308DF805004F2016B1012E0ED1CB
:1036800005E08DF80C0046208DF80D0005E08DF862
:103690000C004E208DF80D0020208DF80E0069469C
:1036A0003846FCF7B1FD05B0F0BD00002030303ADF
:1036B00030303A30302020204F46462000000000B5
:1036C00010B586B00446142226A16846FCF7C0FD5A
:1036D000294881688879A0B1284A02EB800010F857
:1036E000040C8DF80000887902EB800010F8030CC0
:1036F0008DF80100887902EB800010F8020C8DF83B
:103700000200C8790A22B0FBF2F030308DF80500D3
:10371000C879B0FBF2F302FB130030308DF80600DD
:10372000087AB0FBF2F030308DF80800087AB0FB70
:10373000F2F302FB130030308DF80900487AB0FB39
:10374000F2F030308DF80D00487AB0FBF2F102FB58
:10375000110030308DF80E0069462046FCF754FD0C
:1037600006B010BD3030302C2030302F30302F32AA
:10377000303030200000000040000020646200086B
:1037800010B50446FFF726FF05498968497C0129E1
:1037900004D12046BDE81040FFF796BE10BD0000E2
:1037A0004000002070B5094C0546A1684B7D0A7D9C
:1037B000C97CFFF73DFFA068817D002904D0284621
:1037C000BDE87040FFF790BE70BD000040000020D3
:1037D00070B5094C0546A1688B7E4A7E097EFFF7CD
:1037E00027FFA068C17E002904D02846BDE87040AC
:1037F000FFF77ABE70BD00004000002070B5094C94
:103800000546A168CB7F8A7F497FFFF711FFA0683B
:1038100090F82010002904D02846BDE87040FFF73A
:1038200063BE70BD4000002070B50B4C0546A1681A
:1038300091F8243091F8232091F82210FFF7F8FE38
:10384000A06890F82510002904D02846BDE87040F3
:10385000FFF74ABE70BD00004000002010B50446CE
:10386000FFF72EFF05498968897A002904D0204690
:10387000BDE81040FFF756BE10BD0000400000201C
:1038800010B5044600F020F805498968897B0029B5
:1038900004D02046BDE81040FFF766BE10BD000012
:1038A0004000002010B5044600F08AF805498968F8
:1038B0000979002904D02046BDE81040FFF772BE08
:1038C00010BD0000400000202DE9F04385B0814686
:1038D000142235A16846FCF7BBFC38483124482146
:1038E00083685A22202093F80C80B8F1000F0ED084
:1038F00039253626B8F1010F14D038274FF0320C95
:10390000B8F1020F24D0B8F1030F1BD12BE08DF8D2
:1039100004008DF802008DF805008DF803008DF885
:1039200006400BE08DF8020034248DF8034030246B
:103930008DF804408DF805508DF806608DF807105D
:103940008DF808205A7B4F21D2B1012A25D11DE0E4
:103950008DF804408DF802008DF805508DF8037045
:103960008DF806C0EAE733248DF8024037248DF83D
:1039700004408DF805608DF803C08DF80670DDE712
:103980008DF80C1046208DF80D0004E08DF80C1019
:103990004E218DF80D108DF80E0069464846FCF753
:1039A00033FC05B0BDE8F083202033323736384889
:1039B0005A202D204F4E2020000000004000002003
:1039C00010B586B0044614221BA16846FCF740FCE3
:1039D0001E480A218268D078B0FBF1F030308DF8B3
:1039E0000400D078B0FBF1F301FB130030308DF808
:1039F00005009078B0FBF1F030308DF8070090783A
:103A0000B0FBF1F301FB130030308DF80800507863
:103A1000B0FBF1F030308DF80A005078B0FBF1F2D5
:103A200001FB120030308DF80B0069462046FCF790
:103A3000EBFB06B010BD00002020202030303A30D3
:103A4000303A3030202020200000000040000020CC
:103A500010B586B00446142214A16846FCF7F8FBA2
:103A6000174882684F202021537D33B9937E23B9B4
:103A7000D37F13B992F8242082B18DF800004E2034
:103A80008DF801008DF802108DF803108DF80410E8
:103A900069462046FCF7B8FB06B010BD8DF8000063
:103AA00046208DF801008DF80200EDE7303030300F
:103AB000302020202030302E30302A4300000000FB
:103AC0004000002010B5044600F03EF8607000F0A1
:103AD0002BF8A07000F01EF8E07000F013F8A07151
:103AE00000F008F8E07100F027F8207200F036F8D6
:103AF000607210BD10B50420FCF798FCBDE81040C2
:103B0000FCF779BC10B50320FCF790FCBDE8104031
:103B1000FCF771BC10B50220FCF788FCBDE8104032
:103B200000F03F00FCF767BC10B50120FCF77EFCFD
:103B3000BDE81040FCF75FBC10B50520FCF776FC33
:103B4000BDE81040FCF757BC10B50020FCF76EFC38
:103B5000BDE8104000F07F00FCF74DBC10B5102010
:103B6000FCF764FC642100FB01F40620FCF75EFC1A
:103B7000FCF741FC204410BD024908600020FCF71E
:103B80006DBC00008000002010B5FCF73DFC014634
:103B9000BDE810400420FCF771BC10B5FCF734FC04
:103BA0000146BDE810400320FCF768BC10B500F0EA
:103BB0003F00FCF729FC0146BDE810400220FCF75D
:103BC0005DBC10B5FCF720FC0146BDE810400120AB
:103BD000FCF754BC10B5FCF717FC0146BDE81040DB
:103BE0000520FCF74BBC10B50446FCF718FC20433D
:103BF000FCF70AFC0146BDE810400020FCF73EBC83
:103C000070B504466425B0FBF5F0C1B21020FCF796
:103C100035FCB4FBF5F005FB1040FCF7F5FBBDE807
:103C2000704001460620FCF729BC0000064810B58C
:103C300064230222A0214068FDF742F808B1002069
:103C400010BD012010BD0000740000200149486033
:103C500070470000740000203EB50B4C2378012B08
:103C60000ED001232370642392B28DE80E00024629
:103C70000123A0216068FDF791FA0021217008B1AD
:103C800000203EBD01203EBD740000202DE9FF4F05
:103C90001E4C064683B0207815460F4601282DD0CD
:103CA00001202070FCF742FF00F0FF0B4FF00009ED
:103CB000A0464FF0640A00BF06F00700C0F10804F8
:103CC000AC4200D9ACB2CDE90074CDF808A0012314
:103CD0003246A021D8F80400FDF788FB60B106EB5E
:103CE00004002D1B274486B20CD0FCF71FFFA0EB6D
:103CF0000B0106988142DFD388F80090002007B0BE
:103D0000BDE8F08F88F800900120F8E774000020EB
:103D100010B5114C0820236803F11402511E15330D
:103D2000FFF72FF923680B2003F11902511E1A33F4
:103D3000FFF727F92368112003F11E02511E1F33DC
:103D4000FFF71FF92168142001F124035A1EBDE872
:103D500010402231FFF715B95400002008B54FF488
:103D60007A73032269460220FFF776FFC820FCF72A
:103D7000C9FD06489DF80010006801749DF8011007
:103D800001739DF80210417308BD0000540000202B
:103D900038B5464C2068017801292FD100210170E7
:103DA0004279012A2BD0C27A012A34D0827C4FF486
:103DB0007A73012A40D0C27B012A3DD0C27D012AFC
:103DC00049D0027F012A54D090F82120012A5ED0E8
:103DD00090F82620012A11D180F8261010F8221F11
:103DE0008DF8001041788DF8011080788DF8020070
:103DF000032269465FF01400FFF748FF38BD4171A8
:103E0000C078FFF7D3FE20688078FFF7DAFE002045
:103E1000FFF7E9FE38BDC1728079FFF7BEFE20686A
:103E2000C079FFF7B1FE2068007AFFF7D3FE206863
:103E3000407AFFF7E5FE38BD8174C173017C8DF8CF
:103E40000010017B8DF80110407B8DF802000322E9
:103E500069460220D0E7C175C17C8DF80010017D54
:103E60008DF80110407D8DF802000322694608207C
:103E7000C2E70177017E8DF80010417E8DF80110B8
:103E8000807E8DF80200032269460B20B4E780F89B
:103E90002110417F8DF80010817F8DF80110C07FC7
:103EA0008DF80200032269461120A5E75400002086
:103EB00008B5C820FCF726FD4FF47A730222694644
:103EC0000520FFF7C9FEC820FCF71CFD04489DF83B
:103ED0000010406801719DF80110C17108BD00001B
:103EE000540000200C4808B5406801798DF8001096
:103EF000C1798DF801108179012902D0417A012917
:103F000009D10021817141724FF47A73022269460E
:103F10000520FFF7BBFE08BD5400002010B5FFF7D9
:103F200037FFFFF7DFFFBDE8104000F027B80000C3
:103F3000014B83E8070070475400002010B5FFF7DD
:103F40000DFFFFF7E5FEFFF7B3FFBDE8104000F0FF
:103F500001B8000010B5C820FCF7D4FC06484FF4A7
:103F60007A73012281680720491CFFF775FEBDE8BE
:103F70001040C820FCF7C6BC54000020094808B512
:103F8000806841788DF80010C178012908D100219E
:103F9000C1704FF47A73012269460720FFF776FE5D
:103FA00008BD00005400002010B5044801F0A4FF33
:103FB0000248BDE810401030FFF748BA6003002007
:103FC00070B50D4C0025607801280CD10B48657048
:103FD000817A41B9017931B9417921B9C07A10B9F1
:103FE0000648FFF76FFDE079012804D1E571BDE8CF
:103FF0007040FEF7E7BE70BD280000209E03002041
:1040000010B50448FCF77EFA10F1814F01D0014948
:10401000086010BDC803002004480179012903D1BC
:1040200000210171FFF77ABF7047000028000020CF
:1040300070B5494C04F10805626085E80B0000F09A
:10404000C3F8464D4FF400732A464548E168FCF733
:1040500027FA434801F0F6FB4148012229469038EF
:1040600001F0AEFA3E48022229467C3801F0A8FA57
:104070003C4E3B48AA1431466838FFF716F83848DA
:104080004FF4004231465838FFF70FF8344A04F134
:104090001403A2F12A01A1F10A00FEF7A3FF04F123
:1040A000140001F0EBFE04F1140001F081FD012287
:1040B00021462069FEF7BCF8606801F02DF94FF445
:1040C0007A763046FCF71EFC27A20321012001F07E
:1040D000ADF9032127A2084601F0A8F93046FCF704
:1040E00011FC1F48343801F043F800F0A3FE60686B
:1040F000FFF742FD1A482A38FFF7E0F91849483916
:1041000001F11E00FEF774FE1548AA15294648382D
:10411000FFF752F86068FFF799FD3046FCF7F2FBB5
:104120000F4904F11402A1F12A00FFF701FFFFF784
:104130007DFD012805D16423142211A12069FEF719
:104140008DF8FFF7FBFEA068FDF768FEE068FDF75D
:104150003DFE002070BD000010000020000C01405A
:10416000C80300200008014054484520434C4F43F9
:104170004B00000032302F30322F3230323300000B
:104180004565323463303220636F6E6E65637465EB
:10419000642E0A0010B5044C6079012803D100F0A8
:1041A000D7FF0020607110BD2800002010B5FFF778
:1041B000FBFEFFF7EFFFFFF72FFFFFF721FFFFF7F2
:1041C000FFFE002010BD0000074900200860486085
:1041D00048618860C86005490870487048718870F7
:1041E000C870887170470000180300202800002064
:1041F000FCF78ABCFCF78DBCFCF793BC00B58DB016
:1042000004A8FFF7DDFB08A8FFF75AFA04A800F09E
:10421000D9FE08A800F0DCFE00F062FF6846FFF758
:1042200017FC684601F042FB684600F0DDFE0DB069
:1042300000BD000010B507A000F0C4FE0AA000F009
:10424000C7FE0EA000F0CAFEBDE8104010A000F0AE
:10425000CBBE00003E54696D6520416E6420446110
:10426000746520200000000020416C61726D2020E8
:104270002020202020202020000000002054656DF8
:10428000702020202020202020202020000000005E
:104290002055617274202020202020202020202002
:1042A0000000000010B507A000F08CFE0AA000F08E
:1042B0008FFE0EA000F092FEBDE8104010A000F0AE
:1042C00093BE00003E54696D6520202020202020F0
:1042D0002020202000000000204461746520202060
:1042E00020202020202020200000000020486F7582
:1042F00072203234204D6F646520202000000000C1
:10430000204372656174652050756C7365202020B0
:10431000000000001FB56846FFF7C4FA05A000F0D2
:1043200051FE00F0CFFE684600F058FE00F0E6FEB9
:104330001FBD000020202020202054696D65202012
:10434000202020200000000010B507A000F03AFE59
:104350000AA000F03DFE0EA000F040FEBDE81040B7
:1043600010A000F041BE00002054696D652020209F
:104370002020202020202020000000003E446174E6
:104380006520202020202020202020200000000068
:1043900020486F7572203234204D6F6465202020D4
:1043A00000000000204372656174652050756C73D5
:1043B00065202020000000001FB56846FFF74EFA78
:1043C00005A000F0FFFD00F07DFE684600F006FE4F
:1043D00000F094FE1FBD000020202020202044611A
:1043E00074652020202020200000000010B507A0C8
:1043F00000F0E8FD0AA000F0EBFD0EA000F0EEFDDD
:10440000BDE8104010A000F0EFBD00002054696D21
:1044100065202020202020202020202000000000D7
:10442000204461746520202020202020202020208E
:10443000000000003E486F7572203234204D6F64DA
:104440006520202000000000204372656174652013
:1044500050756C7365202020000000001FB5684671
:10446000FFF78EF905A000F0ADFD00F02BFE6846C9
:1044700000F0B4FD00F042FE1FBD00002020486F98
:104480007572203234204D6F6465202000000000DA
:1044900010B507A000F096FD0AA000F099FD0EA04F
:1044A00000F09CFDBDE8104010A000F09DBD000094
:1044B0002054696D652020202020202020202020ED
:1044C000000000002044617465202020202020206E
:1044D000202020200000000020486F757220323418
:1044E000204D6F6465202020000000003E4372656F
:1044F0006174652050756C736520202000000000F9
:104500001FB56846FFF7BCF905A000F05BFD00F0A1
:10451000D9FD684600F062FD00F0F0FD1FBD00000F
:1045200020204372656174652050756C736520208E
:104530000000000010B507A000F044FD0AA000F044
:1045400047FD0EA000F04AFDBDE8104010A000F0AD
:104550004BBD00002054696D6520416E64204461AC
:1045600074652020000000003E416C61726D2020C7
:104570002020202020202020000000002054656DF5
:10458000702020202020202020202020000000005B
:1045900020556172742020202020202020202020FF
:1045A0000000000010B507A000F00CFD0AA000F00C
:1045B0000FFD0EA000F012FDBDE8104010A000F0AD
:1045C00013BD00003E416C61726D2031202020201F
:1045D000202020200000000020416C61726D2032FC
:1045E00020202020202020200000000020416C619D
:1045F000726D203320202020202020200000000089
:1046000020416C61726D2034202020202020202049
:10461000000000001FB56846FFF7C4F805A000F0D1
:10462000D1FC00F04FFD684600F0D8FC00F066FDBC
:104630001FBD000020202020416C61726D203120C0
:10464000202020200000000010B507A000F0BAFCD8
:104650000AA000F0BDFC0EA000F0C0FCBDE81040B8
:1046600010A000F0C1BC000020416C61726D2031CF
:104670002020202020202020000000003E416C61EE
:10468000726D2032202020202020202000000000F9
:1046900020416C61726D20332020202020202020BA
:1046A0000000000020416C61726D20342020202029
:1046B00020202020000000001FB56846FFF788F882
:1046C00005A000F07FFC00F0FDFC684600F086FCD1
:1046D00000F014FD1FBD000020202020416C6172FD
:1046E0006D203220202020200000000010B507A0FF
:1046F00000F068FC0AA000F06BFC0EA000F06EFC5D
:10470000BDE8104010A000F06FBC000020416C61BB
:10471000726D203120202020202020200000000069
:1047200020416C61726D203220202020202020202A
:10473000000000003E416C61726D2033202020207B
:10474000202020200000000020416C61726D203488
:104750002020202020202020000000001FB56846D7
:10476000FFF74CF805A000F02DFC00F0ABFC68460C
:1047700000F034FC00F0C2FC1FBD0000202020200F
:10478000416C61726D203320202020200000000049
:1047900010B507A000F016FC0AA000F019FC0EA04E
:1047A00000F01CFCBDE8104010A000F01DBC000093
:1047B00020416C61726D203120202020202020209B
:1047C0000000000020416C61726D2032202020200A
:1047D000202020200000000020416C61726D2033F9
:1047E0002020202020202020000000003E416C617D
:1047F000726D203420202020202020200000000086
:104800001FB56846FFF710F805A000F0DBFB00F0CD
:1048100059FC684600F0E2FB00F070FC1FBD000090
:1048200020202020416C61726D2034202020202027
:104830000000000010B507A000F0C4FB0AA000F0C3
:10484000C7FB0EA000F0CAFBBDE8104010A000F0AE
:10485000CBBB00002054696D6520416E642044612B
:10486000746520200000000020416C61726D2020E2
:104870002020202020202020000000003E54656DD4
:104880007020202020202020202020200000000058
:1048900020556172742020202020202020202020FC
:1048A0000000000010B507A000F08CFB0AA000F08B
:1048B0008FFB0EA000F092FBBDE8104010A000F0AE
:1048C00093BB00003E54656D702043757272656E37
:1048D00074202020000000002054656D7020536576
:1048E0007420202020202020000000002054797017
:1048F000652053656E736F72202020200000000039
:10490000204E756D6265722053656E736F72202044
:10491000000000001FB5684601F06AF805A000F02D
:1049200051FB00F0CFFB684600F058FB00F0E6FBBF
:104930001FBD0000202054656D70204375727265A4
:104940006E7420200000000010B507A000F03AFBB4
:104950000AA000F03DFB0EA000F040FBBDE81040B7
:1049600010A000F041BB00002054656D702043751D
:104970007272656E74202020000000003E54656D48
:10498000702053657420202020202020000000008B
:1049900020547970652053656E736F72202020203B
:1049A00000000000204E756D6265722053656E73C5
:1049B0006F722020000000001FB5684600F0DEFF87
:1049C00005A000F0FFFA00F07DFB684600F006FB52
:1049D00000F094FB1FBD00002020202054656D7066
:1049E00020536574202020200000000010B507A08F
:1049F00000F0E8FA0AA000F0EBFA0EA000F0EEFAE0
:104A0000BDE8104010A000F0EFBA00002054656D22
:104A1000702043757272656E7420202000000000C3
:104A20002054656D702053657420202020202020A4
:104A3000000000003E547970652053656E736F72FC
:104A40002020202000000000204E756D626572203D
:104A500053656E736F722020000000001FB568461A
:104A600000F0F6FE05A000F0ADFA00F02BFB684662
:104A700000F0B4FA00F042FB1FBD000020202054DB
:104A80007970652053656E736F72202000000000FE
:104A900010B507A000F096FA0AA000F099FA0EA04F
:104AA00000F09CFABDE8104010A000F09DBA000094
:104AB0002054656D702043757272656E74202020DD
:104AC000000000002054656D702053657420202084
:104AD00020202020000000002054797065205365BC
:104AE0006E736F7220202020000000003E4E756D16
:104AF0006265722053656E736F72202000000000A3
:104B00001FB5684600F000FF05A000F05BFA00F05A
:104B1000D9FA684600F062FA00F0F0FA1FBD000012
:104B200020204E756D6265722053656E736F722022
:104B30000000000010B507A000F044FA0AA000F041
:104B400047FA0EA000F04AFABDE8104010A000F0AD
:104B50004BBA00002054696D6520416E64204461A9
:104B6000746520200000000020416C61726D2020DF
:104B70002020202020202020000000002054656DEF
:104B80007020202020202020202020200000000055
:104B90003E556172742020202020202020202020DB
:104BA0000000000010B507A000F00CFA0AA000F009
:104BB0000FFA0EA000F012FABDE8104010A000F0AD
:104BC00013BA00003E4461746120526563656976E2
:104BD000652020200000000020446174612053659E
:104BE0006E642020202020200000000020537461EB
:104BF000746520436F6E6E656374202000000000B2
:104C0000204261756472617465202020202020207C
:104C1000000000001FB5684601F068F805A000F02C
:104C2000D1F900F04FFA684600F0D8F900F066FAC2
:104C30001FBD00002020204461746120526563651F
:104C4000697665200000000010B507A000F0BAF9F1
:104C50000AA000F0BDF90EA000F0C0F9BDE81040B8
:104C600010A000F0C1B900002044617461205265B9
:104C70006365697665202020000000003E44617471
:104C8000612053656E642020202020200000000059
:104C900020537461746520436F6E6E6563742020C9
:104CA000000000002042617564726174652020205C
:104CB00020202020000000001FB5684601F02EF8DB
:104CC00005A000F07FF900F0FDF9684600F086F9D4
:104CD00000F014FA1FBD0000202020204461746100
:104CE0002053656E642020200000000010B507A04E
:104CF00000F068F90AA000F06BF90EA000F06EF960
:104D0000BDE8104010A000F06FB9000020446174AD
:104D100061205265636569766520202000000000EF
:104D200020446174612053656E642020202020207F
:104D3000000000003E537461746520436F6E6E6521
:104D40006374202000000000204261756472617469
:104D50006520202020202020000000001FB568468C
:104D600000F0F4FF05A000F02DF900F0ABF9684663
:104D700000F034F900F0C2F91FBD00002020537488
:104D800061746520436F6E6E6563742000000000DF
:104D900010B507A000F016F90AA000F019F90EA04E
:104DA00000F01CF9BDE8104010A000F01DB9000093
:104DB0002044617461205265636569766520202016
:104DC0000000000020446174612053656E6420205F
:104DD00020202020000000002053746174652043CF
:104DE0006F6E6E6563742020000000003E426175A6
:104DF00064726174652020202020202000000000C3
:104E00001FB5684600F0C2FE05A000F0DBF800F018
:104E100059F9684600F0E2F800F070F91FBD000093
:104E2000202020204261756472617465202020205A
:104E30000000000010B5384800F00CFA374800F0C8
:104E40000FFA374800F012FA364800F015FA3648E3
:104E500000F018FA354800F0F3FA354800F0FCFA93
:104E6000344800F005FB344800F00EFB334800F0F6
:104E700017FB334800F020FB324800F029FB324892
:104E800000F032FB314800F03BFB314800F044FBBE
:104E9000304800F04DFB304800F056FB2F4800F042
:104EA0005FFB2F4800F068FB2E4800F071FB2E4896
:104EB00000F07AFB2D4800F0C9FA2D4800F0D2FA34
:104EC0002C4800F0DBFA2C4800F0E4FA2B4800F004
:104ED000EDFA2B4800F0F6FA2A4800F0FFFA2A48CB
:104EE00000F008FB294800F011FB294800F01AFBEC
:104EF000284800F023FB284800F02CFB274800F04E
:104F000035FB274800F03EFB264800F047FBBDE894
:104F10001040254800F04EBBFD4100083542000816
:104F20003545000835480008354B0008A542000803
:104F300049430008ED43000891440008A5450008D6
:104F400049460008ED46000891470008A5480008BA
:104F500049490008ED490008914A0008A54B00089E
:104F6000494C0008ED4C0008914D0008154300081D
:104F7000B94300085D4400080145000815460008D3
:104F8000B94600085D4700080148000815490008B7
:104F9000B94900085D4A0008014B0008154C00089B
:104FA000B94C00085D4D0008014E0008044800217E
:104FB0004069017101210172C171817141717047B4
:104FC0003401002001460148FBF71EB94C010020C6
:104FD00001460148FBF718B95D0100200146014870
:104FE000FBF712B96E01002001460148FBF70CB92E
:104FF0007F0100200B484069C17801290ED10021B2
:10500000C17090F90410002901DD491E017190F969
:105010000410012219B1012900D182717047427137
:10502000704700003401002006484069817801295A
:1050300007D10021817090F90410032901DA491C7D
:1050400001717047340100200D4840694178012901
:105050000DD10021417090F90410012908D00229D6
:1050600005D190F90610012901DD491E81717047B3
:1050700090F905100129FADD491E417170470000C1
:10508000340100200E484069017801290FD1002128
:10509000017090F904200121012A09D0022A06D1C9
:1050A0008279521C52B28271042A00DD81717047EC
:1050B0004279521C52B24271042AF8DD41717047A4
:1050C0003401002001A0FFF783BF00002020202032
:1050D0002020202020202020202020200000000050
:1050E00001A0FFF77BBF00002020202020202020EF
:1050F00020202020202020200000000001A0FFF719
:1051000073BF0000202020202020202020202020ED
:10511000202020200000000010B500210B4A084686
:1051200000F084F9094A00211132012000F07EF9D3
:10513000064A00212232022000F078F9034A0021B9
:105140003332BDE81040032000F070B94C0100205C
:1051500010B500F063F800F011F800F01BF800F053
:1051600035F800F047F8BDE81040FFF7D5BF000064
:105170000149486100F09CB83401002004484069AE
:105180000079002803D10248803800680047704742
:10519000340100200C4840690179012913D190F9AC
:1051A000051009488038012907D0022907D00329B2
:1051B00007D0042907D1006900474068FCE78068F0
:1051C000FAE7C068F8E7704734010020084810B5D6
:1051D00040690079022809D1FEF704F8FEF73AF891
:1051E000FEF770F8BDE81040FEF7A4B810BD00004F
:1051F00034010020084810B540690079032809D11E
:10520000FEF70CF8FEF742F8FEF778F8BDE810401C
:10521000FEF7ACB810BD00003401002000B5FFF768
:1052200003FFFFF7E7FEFFF72DFF5DF804EBFFF745
:105230000BBF0000024901204969C8707047000097
:10524000340100200249012049698870704700003C
:10525000340100200149086070470000B4000020BC
:105260000149486070470000B4000020014988608F
:1052700070470000B40000200149C860704700007A
:10528000B40000200149086170470000B40000200C
:10529000024901204969487070470000340100202C
:1052A000024901204969087070470000340100205C
:1052B000064800214069C170817041700170017120
:1052C00001210172C1718171417170473401002067
:1052D000002801DA002002E0032800DD0320002975
:1052E00001DA002102E00F2900DD0F2130B1012891
:1052F00007D0022807D0032807D00AE08031CAB2BD
:1053000007E0403102E0103100E05031C8B240F017
:105310008002104600F040B81E4910B508603220E7
:10532000FBF7F0FA302000F037F80520FBF7EAFA37
:10533000302000F031F80120FBF7E4FA302000F0D3
:105340002BF80A20FBF7DEFA202000F025F80A20CF
:10535000FBF7D8FA282000F01FF80120FBF7D2FA5B
:10536000082000F019F80120FBF7CCFA012000F02A
:1053700013F80120FBF7C6FA0120FBF7C3FA062059
:1053800000F00AF80120FBF7BDFABDE810400C2040
:1053900000F002B87C0000201CB500F0F00141F0E4
:1053A0000C028DF8042041F0080100018DF8051071
:1053B00040F00C018DF8061040F008008DF8070051
:1053C000642000900348042301AA4E210068FBF7E3
:1053D0004FFE1CBD7C0000201CB500F0F00141F028
:1053E0000D028DF8042041F0090100018DF805102F
:1053F00040F00D018DF8061040F009008DF807000F
:10540000642000900348042301AA4E210068FBF7A2
:105410002FFE1CBD7C00002010B5044602E0641C79
:10542000FFF7DAFF20780028F9D110BD10B5144637
:10543000FFF74EFF2046BDE81040FFF7EDBF00002C
:105440000149486170470000B400002001494865E7
:1054500070470000B40000200149886170470000D7
:10546000B40000200149886570470000B4000020A6
:105470000149C86170470000B40000200149C865B7
:1054800070470000B4000020014908627047000026
:10549000B40000200149086670470000B4000020F5
:1054A0000149486270470000B40000200149486685
:1054B00070470000B4000020014988627047000076
:1054C000B40000200149886670470000B400002045
:1054D0000149C86270470000B40000200149C86655
:1054E00070470000B40000200149086370470000C5
:1054F000B40000200149086770470000B400002094
:105500000149486370470000B40000200149486722
:1055100070470000B4000020014988637047000014
:10552000B40000200149886770470000B4000020E3
:105530000149C86370470000B40000200149C867F2
:1055400070470000B4000020014908647047000063
:10555000B4000020014908607047000034010020B9
:105560000149486470470000B400002001494860C8
:105570007047000034010020014988647047000032
:10558000B400002001498860704700003401002009
:105590000149C86470470000B40000200149C86098
:1055A0007047000034010020014908657047000081
:1055B000B400002001490861704700003401002058
:1055C0000023436003600372C16002827047018A56
:1055D000C068FEF70FBE0000FBF7D6FFFDF75DFACF
:1055E000FDF78EF9FDF740F9FDF764F91C481B49FA
:1055F000002401601B49C0E901144FF48041C0E957
:10560000034144618461C4610462FBF795FA08B107
:1056100072B6FEE7FDF7BCF9FDF7EEF91048124946
:10562000E43001604FF41651C0E901140C21C4604C
:10563000C0E904418461C461FCF791FD08B172B610
:10564000FEE7074A064B02F19C01E433A1F1480052
:10565000FEF7EEFCFEF7AAFDFCE700000054004058
:10566000F0010020A08601000044004001780029DC
:1056700001D0491E017070470178491CC9B2017000
:10568000632901D900210170704710B50279032AFE
:1056900016D14279012A13D190F90600012810D0C1
:1056A00002280DD1887A0C4601281AD002281DD074
:1056B000032820D0042803D1617AFDF771FE6072BF
:1056C00010BD08790C46012806D00228F8D1A1782F
:1056D00000F030FAA07010BDE17800F02BFAE07015
:1056E00010BDA179FDF75CFEA07110BDE179FDF759
:1056F00057FEE07110BD217AFDF752FE207210BDF9
:1057000010B50279032A1BD14279012A18D190F9E8
:105710000620012A15D0022A23D00020032A3ED0D9
:10572000042A0DD18A7B002A0AD0012A42D0022AFB
:1057300006D14A7B521CD2B24A73012A00D948735F
:1057400010BD08790C46012806D00228F8D1A178AE
:1057500000F0FAF9A07010BDE17800F0F5F9E07002
:1057600010BD887A0C4601280AD002280DD00328E3
:1057700010D00428F4D1617AFDF724FE607210BDC8
:10578000A179FDF71FFEA07110BDE179FDF71AFEAA
:10579000E07110BD217AFDF715FE207210BD4A7C24
:1057A000012AFBD10A7C521CD2B20A74012AF5D913
:1057B000087410BD0A7B22B1012A04D0022A05D147
:1057C00003E0012002E0022000E00320087310BD86
:1057D0000279032A17D14279012A14D190F90630AF
:1057E00000220120012B0FD0022B17D0032B1FD03A
:1057F000042B08D18B7B5B1CDBB28B73022B02D991
:10580000C87308708A7370470B795B1CDBB20B712D
:10581000022BF8D9487108700A7170478B7A5B1CAB
:10582000DBB28B72042BF8D9C87208708A72704789
:105830004B7C5B1CDBB24B74012BF8D9887408706D
:105840004A74704701494860704700004C000020CE
:1058500010B586B0044614220FA16846FAF7F8FC8A
:1058600044208DF8040053208DF8050031208DF878
:10587000060038208DF8070042208DF808003220FD
:105880008DF8090030208DF80A0069462046FAF7A5
:10589000BBFC06B010BD00002020202020202020CE
:1058A00020202020202020200000000010B50446E9
:1058B000134814494068006800F08CFB00F05AFB64
:1058C0004FF47A7190FBF1F23032627290FBF1F298
:1058D00001FB1201642291FBF2F33033A37290FBBF
:1058E000F2F302FB13030A2293FBF2F33033237328
:1058F00090FBF2F302FB13003030607310BD000028
:105900004C0000200000C84230B585B00546142286
:1059100014A16846FAF79CFC174C0A206168CA7902
:10592000B2FBF0F230328DF80720C979B1FBF0F20A
:1059300000FB121030308DF8080069462846FAF74F
:1059400063FC6068007A012809D16078C0F1010029
:10595000C0B26070012802D02020E871287205B022
:1059600030BD0000202020202020203030202020AA
:1059700020202020000000004C00002030B585B021
:105980000546142214A16846FAF762FC174C0A2057
:1059900061680A79B2FBF0F230328DF8062009799D
:1059A000B1FBF0F200FB121030308DF807006946B1
:1059B0002846FAF729FC60684079012809D1207847
:1059C000C0F10100C0B22070012802D02020A871CF
:1059D000E87105B030BD00002020202020203030AC
:1059E0002020202A43202020000000004C0000201E
:1059F00010B586B00446142219A16846FAF728FCAF
:105A00001C481D494068006800F0E4FA00F0B2FA52
:105A10004FF47A7190FBF1F230328DF8042090FB54
:105A2000F1F201FB1202642192FBF1F230328DF8A7
:105A3000052090FBF1F201FB12020A2192FBF1F228
:105A400030328DF8072090FBF1F201FB120030306C
:105A50008DF8080069462046FAF7D6FB06B010BD5F
:105A60002020202030302E303020446F2020202075
:105A7000000000004C0000200000C8420279032A08
:105A800017D14279032A14D190F90600012810D0C9
:105A9000022809D003280CD004280AD1087A01284A
:105AA00007D1C81DFFF7E2BD4879012801D1081DC3
:105AB000F8E770470279032A17D14279032A14D1F3
:105AC00090F90600012810D0022809D003280CD034
:105AD00004280AD1087A012807D1C81DFFF7CCBDD8
